{
  "_format": "hh-sol-artifact-1",
  "contractName": "Calculator",
  "sourceName": "contracts/Calculator.sol",
  "abi": [
    {
      "inputs": [
        {
          "internalType": "uint256",
          "name": "a",
          "type": "uint256"
        },
        {
          "internalType": "uint256",
          "name": "b",
          "type": "uint256"
        }
      ],
      "name": "addition",
      "outputs": [
        {
          "internalType": "uint256",
          "name": "",
          "type": "uint256"
        }
      ],
      "stateMutability": "pure",
      "type": "function"
    },
    {
      "inputs": [
        {
          "internalType": "uint256",
          "name": "a",
          "type": "uint256"
        },
        {
          "internalType": "uint256",
          "name": "b",
          "type": "uint256"
        }
      ],
      "name": "division",
      "outputs": [
        {
          "internalType": "uint256",
          "name": "",
          "type": "uint256"
        }
      ],
      "stateMutability": "pure",
      "type": "function"
    },
    {
      "inputs": [
        {
          "internalType": "uint256",
          "name": "a",
          "type": "uint256"
        },
        {
          "internalType": "uint256",
          "name": "b",
          "type": "uint256"
        }
      ],
      "name": "multiplication",
      "outputs": [
        {
          "internalType": "uint256",
          "name": "",
          "type": "uint256"
        }
      ],
      "stateMutability": "pure",
      "type": "function"
    },
    {
      "inputs": [
        {
          "internalType": "uint256",
          "name": "a",
          "type": "uint256"
        },
        {
          "internalType": "uint256",
          "name": "b",
          "type": "uint256"
        }
      ],
      "name": "subtraction",
      "outputs": [
        {
          "internalType": "uint256",
          "name": "",
          "type": "uint256"
        }
      ],
      "stateMutability": "pure",
      "type": "function"
    }
  ],
  "bytecode": "0x608060405234801561001057600080fd5b50610422806100206000396000f3fe608060405234801561001057600080fd5b506004361061004c5760003560e01c806354f363a314610051578063900683d014610081578063bbe562b0146100b1578063e0068052146100e1575b600080fd5b61006b600480360381019061006691906101f2565b610111565b604051610078919061023d565b60405180910390f35b61009b600480360381019061009691906101f2565b61012e565b6040516100a8919061023d565b60405180910390f35b6100cb60048036038101906100c691906101f2565b61014b565b6040516100d8919061023d565b60405180910390f35b6100fb60048036038101906100f691906101f2565b610168565b604051610108919061023d565b60405180910390f35b6000610126828461018590919063ffffffff16565b905092915050565b6000610143828461019b90919063ffffffff16565b905092915050565b600061016082846101b190919063ffffffff16565b905092915050565b600061017d82846101c790919063ffffffff16565b905092915050565b600081836101939190610258565b905092915050565b600081836101a99190610339565b905092915050565b600081836101bf91906102df565b905092915050565b600081836101d591906102ae565b905092915050565b6000813590506101ec816103d5565b92915050565b6000806040838503121561020557600080fd5b6000610213858286016101dd565b9250506020610224858286016101dd565b9150509250929050565b6102378161036d565b82525050565b6000602082019050610252600083018461022e565b92915050565b60006102638261036d565b915061026e8361036d565b9250827fffffffffffffffffffffffffffffffffffffffffffffffffffffffffffffffff038211156102a3576102a2610377565b5b828201905092915050565b60006102b98261036d565b91506102c48361036d565b9250826102d4576102d36103a6565b5b828204905092915050565b60006102ea8261036d565b91506102f58361036d565b9250817fffffffffffffffffffffffffffffffffffffffffffffffffffffffffffffffff048311821515161561032e5761032d610377565b5b828202905092915050565b60006103448261036d565b915061034f8361036d565b92508282101561036257610361610377565b5b828203905092915050565b6000819050919050565b7f4e487b7100000000000000000000000000000000000000000000000000000000600052601160045260246000fd5b7f4e487b7100000000000000000000000000000000000000000000000000000000600052601260045260246000fd5b6103de8161036d565b81146103e957600080fd5b5056fea2646970667358221220a505f1c815239fa854f74db3d40ce12b9f09630a9df14a08620739cd04e597df64736f6c63430008040033",
  "linkReferences": {},
  "deployedLinkReferences": {}
}