{
  "_format": "hh-sol-artifact-1",
  "contractName": "BuyMeACoffee",
  "sourceName": "contracts/BuyMeACoffee.sol",
  "abi": [
    {
      "inputs": [],
      "stateMutability": "nonpayable",
      "type": "constructor"
    },
    {
      "anonymous": false,
      "inputs": [
        {
          "indexed": true,
          "internalType": "address",
          "name": "sentFrom",
          "type": "address"
        },
        {
          "indexed": false,
          "internalType": "uint256",
          "name": "timeSent",
          "type": "uint256"
        },
        {
          "indexed": false,
          "internalType": "string",
          "name": "Name",
          "type": "string"
        },
        {
          "indexed": false,
          "internalType": "string",
          "name": "message",
          "type": "string"
        }
      ],
      "name": "NewMemo",
      "type": "event"
    },
    {
      "inputs": [],
      "name": "balance",
      "outputs": [
        {
          "internalType": "uint256",
          "name": "",
          "type": "uint256"
        }
      ],
      "stateMutability": "view",
      "type": "function"
    },
    {
      "inputs": [
        {
          "internalType": "string",
          "name": "name",
          "type": "string"
        },
        {
          "internalType": "string",
          "name": "message",
          "type": "string"
        }
      ],
      "name": "buyCoffee",
      "outputs": [],
      "stateMutability": "payable",
      "type": "function"
    },
    {
      "inputs": [],
      "name": "getMemos",
      "outputs": [
        {
          "components": [
            {
              "internalType": "address",
              "name": "sentFrom",
              "type": "address"
            },
            {
              "internalType": "uint256",
              "name": "timeSent",
              "type": "uint256"
            },
            {
              "internalType": "string",
              "name": "Name",
              "type": "string"
            },
            {
              "internalType": "string",
              "name": "message",
              "type": "string"
            }
          ],
          "internalType": "struct BuyMeACoffee.Memo[]",
          "name": "",
          "type": "tuple[]"
        }
      ],
      "stateMutability": "view",
      "type": "function"
    },
    {
      "inputs": [],
      "name": "owner",
      "outputs": [
        {
          "internalType": "address payable",
          "name": "",
          "type": "address"
        }
      ],
      "stateMutability": "view",
      "type": "function"
    },
    {
      "inputs": [],
      "name": "withdrawTips",
      "outputs": [],
      "stateMutability": "nonpayable",
      "type": "function"
    }
  ],
  "bytecode": "0x608060405234801561001057600080fd5b50336000806101000a81548173ffffffffffffffffffffffffffffffffffffffff021916908373ffffffffffffffffffffffffffffffffffffffff160217905550610bed806100606000396000f3fe60806040526004361061004a5760003560e01c8063204206e11461004f5780633aaa74b21461006b578063865c5172146100825780638da5cb5b146100ad578063b69ef8a8146100d8575b600080fd5b6100696004803603810190610064919061065d565b610103565b005b34801561007757600080fd5b5061008061028b565b005b34801561008e57600080fd5b506100976102eb565b6040516100a491906108a8565b60405180910390f35b3480156100b957600080fd5b506100c2610526565b6040516100cf919061088d565b60405180910390f35b3480156100e457600080fd5b506100ed61054a565b6040516100fa91906108ea565b60405180910390f35b60003411610146576040517f08c379a000000000000000000000000000000000000000000000000000000000815260040161013d906108ca565b60405180910390fd5b600160405180608001604052803373ffffffffffffffffffffffffffffffffffffffff16815260200142815260200184815260200183815250908060018154018082558091505060019003906000526020600020906004020160009091909190915060008201518160000160006101000a81548173ffffffffffffffffffffffffffffffffffffffff021916908373ffffffffffffffffffffffffffffffffffffffff160217905550602082015181600101556040820151816002019080519060200190610215929190610552565b506060820151816003019080519060200190610232929190610552565b5050503373ffffffffffffffffffffffffffffffffffffffff167fc56140e05f516509ae28110e0f72e17558a7561630dad2647c3ae87d986e365c42848460405161027f93929190610905565b60405180910390a25050565b60008054906101000a900473ffffffffffffffffffffffffffffffffffffffff1673ffffffffffffffffffffffffffffffffffffffff166108fc479081150290604051600060405180830381858888f193505050506102e957600080fd5b565b606060008054906101000a900473ffffffffffffffffffffffffffffffffffffffff1673ffffffffffffffffffffffffffffffffffffffff163373ffffffffffffffffffffffffffffffffffffffff161461034557600080fd5b6001805480602002602001604051908101604052809291908181526020016000905b8282101561051d57838290600052602060002090600402016040518060800160405290816000820160009054906101000a900473ffffffffffffffffffffffffffffffffffffffff1673ffffffffffffffffffffffffffffffffffffffff1673ffffffffffffffffffffffffffffffffffffffff168152602001600182015481526020016002820180546103fa90610a96565b80601f016020809104026020016040519081016040528092919081815260200182805461042690610a96565b80156104735780601f1061044857610100808354040283529160200191610473565b820191906000526020600020905b81548152906001019060200180831161045657829003601f168201915b5050505050815260200160038201805461048c90610a96565b80601f01602080910402602001604051908101604052809291908181526020018280546104b890610a96565b80156105055780601f106104da57610100808354040283529160200191610505565b820191906000526020600020905b8154815290600101906020018083116104e857829003601f168201915b50505050508152505081526020019060010190610367565b50505050905090565b60008054906101000a900473ffffffffffffffffffffffffffffffffffffffff1681565b600047905090565b82805461055e90610a96565b90600052602060002090601f01602090048101928261058057600085556105c7565b82601f1061059957805160ff19168380011785556105c7565b828001600101855582156105c7579182015b828111156105c65782518255916020019190600101906105ab565b5b5090506105d491906105d8565b5090565b5b808211156105f15760008160009055506001016105d9565b5090565b60006106086106038461096f565b61094a565b90508281526020810184848401111561062057600080fd5b61062b848285610a54565b509392505050565b600082601f83011261064457600080fd5b81356106548482602086016105f5565b91505092915050565b6000806040838503121561067057600080fd5b600083013567ffffffffffffffff81111561068a57600080fd5b61069685828601610633565b925050602083013567ffffffffffffffff8111156106b357600080fd5b6106bf85828601610633565b9150509250929050565b60006106d58383610805565b905092915050565b6106e681610a18565b82525050565b6106f581610a06565b82525050565b6000610706826109b0565b61071081856109d3565b935083602082028501610722856109a0565b8060005b8581101561075e578484038952815161073f85826106c9565b945061074a836109c6565b925060208a01995050600181019050610726565b50829750879550505050505092915050565b600061077b826109bb565b61078581856109e4565b9350610795818560208601610a63565b61079e81610b57565b840191505092915050565b60006107b4826109bb565b6107be81856109f5565b93506107ce818560208601610a63565b6107d781610b57565b840191505092915050565b60006107ef6022836109f5565b91506107fa82610b68565b604082019050919050565b600060808301600083015161081d60008601826106ec565b506020830151610830602086018261086f565b50604083015184820360408601526108488282610770565b915050606083015184820360608601526108628282610770565b9150508091505092915050565b61087881610a4a565b82525050565b61088781610a4a565b82525050565b60006020820190506108a260008301846106dd565b92915050565b600060208201905081810360008301526108c281846106fb565b905092915050565b600060208201905081810360008301526108e3816107e2565b9050919050565b60006020820190506108ff600083018461087e565b92915050565b600060608201905061091a600083018661087e565b818103602083015261092c81856107a9565b9050818103604083015261094081846107a9565b9050949350505050565b6000610954610965565b90506109608282610ac8565b919050565b6000604051905090565b600067ffffffffffffffff82111561098a57610989610b28565b5b61099382610b57565b9050602081019050919050565b6000819050602082019050919050565b600081519050919050565b600081519050919050565b6000602082019050919050565b600082825260208201905092915050565b600082825260208201905092915050565b600082825260208201905092915050565b6000610a1182610a2a565b9050919050565b6000610a2382610a2a565b9050919050565b600073ffffffffffffffffffffffffffffffffffffffff82169050919050565b6000819050919050565b82818337600083830152505050565b60005b83811015610a81578082015181840152602081019050610a66565b83811115610a90576000848401525b50505050565b60006002820490506001821680610aae57607f821691505b60208210811415610ac257610ac1610af9565b5b50919050565b610ad182610b57565b810181811067ffffffffffffffff82111715610af057610aef610b28565b5b80604052505050565b7f4e487b7100000000000000000000000000000000000000000000000000000000600052602260045260246000fd5b7f4e487b7100000000000000000000000000000000000000000000000000000000600052604160045260246000fd5b6000601f19601f8301169050919050565b7f43616e277420627579204120436f666665652077697468207a65726f2065746860008201527f657200000000000000000000000000000000000000000000000000000000000060208201525056fea2646970667358221220fc996ae7b93c9e04dd73fe2c22aaf2ffd77ea80dbafa6e6f1d341b08569b56c464736f6c63430008040033",
  "linkReferences": {},
  "deployedLinkReferences": {}
}